:04000000FEEF1FF000
:10215C00C58AC5881200C586D6EC10F01200C5825F
:10216C00D6EC10F01200C580D6EC10F01200C5842D
:10217C00D6EC10F01200B1EC10F0AEEC10F0C9502F
:10218C001200016E01C0C9FFD6EC10F01200016EF6
:10219C0001C0A9FFA694A69EA69CA680A8501200DA
:1021AC009EA6DBEF10F0DDEF10F0D6EF10F09E9650
:1021BC0012000F0EC16E1E0E936EF19E8150E0093F
:1021CC00816E120094869488280EC66E310EC86EED
:1021DC00C79CC78E9E96A1961200096E000E016ECA
:1021EC00085088EC11F0010E016E095088EC11F0CA
:1021FC001200016E9EA805EF11F007EF11F000EF31
:10220C0011F09E9801C0ADFF1200C08EC09AC0881C
:10221C00C096C090C082C094C292C19AC198C46A40
:10222C00C36AC2801200F1EC13F0E8EC10F00BEC76
:10223C0011F0C8EC11F036EC11F0DFEC10F0586A2C
:10224C001200096EB9EC10F0D00EC7EC10F009506A
:10225C00C7EC10F00850C7EC10F0BDEC10F01200F9
:10226C00948E949CAC9CAC8AAC98AC96AC84AB8EA3
:10227C00AB9CAB88B896810EAF6E9E989E9A12005E
:10228C00026EB9EC10F0D00EC7EC10F00250C7EC97
:10229C0010F0B5EC10F0D10EC7EC10F0C1EC10F052
:1022AC00036EBDEC10F00350120001C003F0022AC3
:1022BC000204D96EDA6A032A0304E16EE26ADFCF04
:1022CC00E7FFE750D8A46DEF11F06FEF11F05DEF61
:1022DC0011F01200026E02C0A9FF01C0A8FFA69E59
:1022EC00A69CA684F29E550EA76EAA0EA76EA68279
:1022FC00F28EA1A884EF11F086EF11F07FEF11F0B0
:10230C00A1981200026E01B08EEF11F091EF11F056
:10231C00828292EF11F0829202C083FF82848294B7
:10232C00958E828082928284829483BEA0EF11F07B
:10233C00A2EF11F099EF11F08290959E1200076EAA
:10234C0007C003F0D8900336D8900336C250C30BA5
:10235C000310C26EC282C2B2B6EF11F0B8EF11F028
:10236C00B1EF11F0C350C4CF03F0046A03C004F002
:10237C00036A0310056E0450066E05C001F006C01A
:10238C0002F01200000E46EC11F00A6E0A508009A1
:10239C00086E000E27EC11F0020E46EC11F00A6EDE
:1023AC000A504009086E020E27EC11F0930E086ECD
:1023BC00070E27EC11F0000E46EC11F00A6E0A50D5
:1023CC007F0B086E000E27EC11F012004E6A000E07
:1023DC004D6E596A466A000E456E486A000E476E8D
:1023EC004A6A000E496ED80E036E3F0E046E800EC4
:1023FC00056EFFEC12F01A0E076E5E0E066E6E0E78
:10240C00E82EFED7062EFCD7072EFAD700D0000EEA
:0E241C00016E010E88EC11F0010E586E1200D8
:10242B0056494557204C4F47000000000000434CD5
:10243B00454152204C4F470000000000444F574E7F
:10244B004C4F4144204C4F470000534554205449B6
:10245B004D450000000000004F4E004E4500473137
:10246B0000473200473300473400473500475200DE
:10247B00434C0055EF12F002C0F6FF03C0F7FFF814
:10248B006A050EF76403D00800F55005D0F6CFE9C6
:10249B00FFF7CFEAFFEF50FFEC10F0024A032A02DE
:1024AB00C0F6FF03C0F7FFF86A050EF76403D00808
:1024BB0000F55005D0F6CFE9FFF7CFEAFFEF50005C
:1024CB0009D8A46BEF12F06DEF12F041EF12F0127E
:1024DB000072EF12F0012A022A0250D96EDA6A0159
:1024EB0050E16EE26ADE50E618D8A47FEF12F0815D
:1024FB00EF12F08CEF12F00150D96EDA6ADF50D880
:10250B00A48AEF12F08CEF12F070EF12F00150D999
:10251B006EDA6ADF50036E0250D96EDA6ADF50044E
:10252B006E0450035C016E026AD8A0020612002BE7
:10253B000EF66E240EF76E000EF86E00EE60F010C5
:10254B00EE53F00900F5CFEEFFE550E150FAE10054
:10255B000EF66E400EF76E000EF86E0900F5CF5DAD
:10256B00F001EE00F0960EEE6AE806FDE100EEB328
:10257B00F00C0EEE6AE806FDE100EE36F0270EEEEB
:10258B006AE806FDE1000EF86E0001A8EF13F003F8
:10259B00500410D8B4D4EF12F0D6EF12F0FAEF12B9
:1025AB00F0010E056EDEEF12F0D8900336043605FF
:1025BB002A04AEE3EF12F0E5EF12F0DAEF12F003BC
:1025CB0050015C04500258D8A0EEEF12F0F0EF125D
:1025DB00F0F4EF12F00350015E0450025AD890044D
:1025EB00320332052EE5EF12F001C001F002C002FA
:1025FB00F01200000E016E055088EC11F01CEF1369
:10260B00F0010E016E03C0F6FF04C0F7FFF86A0578
:10261B000EF76403D00800F55005D0F6CFE9FFF7AD
:10262B00CFEAFFEF5088EC11F0034A042A03C0F6FF
:10263B00FF04C0F7FFF86A050EF76403D00800F536
:10264B005005D0F6CFE9FFF7CFEAFFEF500009D8DE
:10265B00A432EF13F034EF13F006EF13F012000671
:10266B006A000E056E03500410D8B43FEF13F0410F
:10267B00EF13F069EF13F0010E076E49EF13F0D86B
:10268B009003360436072A04AE4EEF13F050EF13C7
:10269B00F045EF13F0D890053606360350015C0475
:1026AB00500258D8A05CEF13F05EEF13F063EF13FA
:1026BB00F00350015E0450025A0580D89004320397
:1026CB0032072E50EF13F005C001F006C002F012D6
:1026DB0000016E0104D8A475EF13F077EF13F09A95
:1026EB00EF13F0A4EC15F0536E5328D8B480EF130E
:1026FB00F082EF13F08EEF13F05D50D8B488EF1328
:10270B00F08AEF13F08EEF13F05D6A5350A7EF13BF
:10271B00F05328D8A494EF13F096EF13F0A6EF1311
:10272B00F0010E5D6EA6EF13F00150D8A4A0EF13CD
:10273B00F0A2EF13F0A6EF13F0A4EC15F0A7EF1334
:10274B00F0FF0E120019EC11F058C057F0010E6E8D
:10275B00EC13F0556ECAEF13F02FEC19F0ACEF132E
:10276B00F0C6EC16F0ACEF13F028EC16F0ACEF1350
:10277B00F0AFEC14F0ACEF13F0ECEC11F0ACEF139A
:10278B00F02EEC1CF0ACEF13F05850346E356A356C
:10279B0050000AD8B4D4EF13F0ACEF13F034500060
:1027AB000AD8B4B2EF13F0010AD8B4B6EF13F003A2
:1027BB000AD8B4BAEF13F0010AD8B4C6EF13F00776
:1027CB000AD8B4BEEF13F0010AD8B4C2EF13F0ACC1
:1027DB00EF13F0FEEF1FF0956A9450F80B946E8296
:1027EB0090C30E036ECD0EE82EFED7032EFCD70042
:1027FB0000000E016E330E88EC11F01B0E036E9E63
:10280B000EE82EFED7032EFCD700D0000E016E3340
:10281B000E88EC11F0A60EE82EFED700D0000E01AC
:10282B006E330E88EC11F000D000D00000000E01CA
:10283B006E020E88EC11F0A60EE82EFED700D0002B
:10284B000E016E380E88EC11F0A60EE82EFED700A6
:10285B00D0000E016E010E88EC11F0040E036E3EDB
:10286B000EE82EFED7032EFCD7000E016E0C0E8841
:10287B00EC11F0A60EE82EFED700D012005150033B
:10288B000DF350980F016EBC0E026E6EEC12F00140
:10289B00500210D8B454EF14F056EF14F0AEEF14FE
:1028AB00F0BC0E016E5150030DF350980F026E5B8E
:1028BB00EC11F04D4A4E2A066A000E056E0550B318
:1028CB000FD96EDA6ADF50016E595070EC11F05966
:1028DB002A054A062A06BE7CEF14F0065009E108C9
:1028EB000E055CD8A07CEF14F07EEF14F064EF14AF
:1028FB00F05150030DF350980FD96EDA6ADF500187
:10290B006E595070EC11F0592A5150030DF3509938
:10291B000FD96EDA6ADF50016E595070EC11F05915
:10292B002A5AC001F0595070EC11F0592A5BC001C2
:10293B00F0595070EC11F0592A770E5964A8EF1426
:10294B00F0AAEF14F0AEEF14F04A6A010E496E597B
:10295B006A12008DEC17F045504610D8A4B8EF144E
:10296B00F0BAEF14F0D7EF14F0E50E036E3F0E0440
:10297B006E840E056EFFEC12F01A0E116E5E0E10C9
:10298B006E6E0EE82EFED7102EFCD7112EFAD70046
:10299B00D0000E016E010E88EC11F0010E586E2066
:1029AB00EF15F0F20E026E3F0E036E3FEC12F013BA
:1029BB006A000E126EFBEF14F00F0E1202F3CF1023
:1029CB00F0F4CF11F01302F3501126000E10240275
:1029DB006E010E1120036E3FEC12F0F20E026E3FF1
:1029EB000E036E3FEC12F0124A132A4550125C464E
:1029FB00501358D8A004EF15F006EF15F0E2EF14C2
:102A0B00F0C70E036E3F0E046E800E056EFFEC12C8
:102A1B00F0030E116E8A0E106E560EE82EFED710B6
:102A2B002EFCD7112EFAD7000E016E010E88EC1179
:102A3B00F0D3EF14F012002A342B34316E3150D80E
:102A4B00A42AEF15F02CEF15F036EF15F0000E2839
:102A5B006E000E296E000E2A6E000E2B6EA3EF1564
:102A6B00F028C02CF029C02DF02AC02EF02BC02F3F
:102A7B00F0200E46EF15F0D8902F322E322D322C3F
:102A8B0032E82E41EF15F02C50306E2A8EFF0E28B7
:102A9B0016FF0E2916FF0E2A16000E2B16960E3158
:102AAB005E31BE5DEF15F05BEF15F073EF15F03196
:102ABB0050800A970FD8B065EF15F067EF15F069E6
:102ACB00EF15F02CEF15F0D8902B322A3229322843
:102ADB0032313E69EF15F08BEF15F01F0E31647933
:102AEB00EF15F07BEF15F083EF15F02CEF15F0D809
:102AFB0090283629362A362B3631063150D8A48900
:102B0B00EF15F08BEF15F07DEF15F03050D8B49139
:102B1B00EF15F093EF15F09BEF15F02B1E2A1E29E6
:102B2B001E286C000E29222A222B2228C028F029CD
:102B3B00C029F02AC02AF02BC02BF01200819A81F9
:102B4B008C818E81B2ACEF15F0AEEF15F0B1EF15B5
:102B5B00F0010E27EF16F081B4B6EF15F0B8EF15B4
:102B6B00F0BBEF15F0040E27EF16F081B6C0EF1592
:102B7B00F0C2EF15F0C5EF15F0070E27EF16F08139
:102B8B00B8CAEF15F0CCEF15F0CFEF15F00A0E2702
:102B9B00EF16F0818A819C818E81B2D7EF15F0D927
:102BAB00EF15F0DCEF15F0020E27EF16F081B4E114
:102BBB00EF15F0E3EF15F0E6EF15F0050E27EF1626
:102BCB00F081B6EBEF15F0EDEF15F0F0EF15F00827
:102BDB000E27EF16F081B8F5EF15F0F7EF15F0FAB9
:102BEB00EF15F00B0E27EF16F0818A818C819E81F9
:102BFB009E81B203EF16F005EF16F008EF16F00307
:102C0B000E27EF16F081B40DEF16F00FEF16F01242
:102C1B00EF16F0060E27EF16F081B617EF16F01928
:102C2B00EF16F01CEF16F0090E27EF16F081B82106
:102C3B00EF16F023EF16F026EF16F00C0E27EF161B
:102C4B00F0FF0E12008DEC17F0ED0E036E3F0E042D
:102C5B006E820E056EFFEC12F0F80E036E3F0E0443
:102C6B006E8A0E056EFFEC12F0F50E036E3F0E042E
:102C7B006E8D0E056EFFEC12F045504610D8A44930
:102C8B00EF16F04BEF16F065EF16F0E50E036E3F07
:102C9B000E046EC40E056EFFEC12F00C0E5518D818
:102CAB00A45AEF16F05CEF16F0C5EF16F0000E010C
:102CBB006E010E88EC11F0010E586EC5EF16F00286
:102CCB000E5518D8A46CEF16F06EEF16F086EF16B3
:102CDB00F0000E016E010E88EC11F0FF0E45241072
:102CEB006EFF0E4620116E1050475C11504858D89D
:102CFB00B082EF16F084EF16F086EF16F0474A48D5
:102D0B002A5504D8A48CEF16F08EEF16F09FEF1611
:102D1B00F0000E016E010E88EC11F047504810D8F0
:102D2B00B49AEF16F09CEF16F09FEF16F04706D80B
:102D3B00A048060C0E5518D8A4A6EF16F0A8EF164F
:102D4B00F0B2EF16F0000E016E010E88EC11F04898
:102D5B006A000E476E010E586E0F0E4702F3CF102E
:102D6B00F0F4CF11F04802F3501126000E1024039B
:102D7B006E010E1120046EC00E056EFFEC12F012E8
:102D8B0000020E5518D8A4CDEF16F0CFEF16F0E1D8
:102D9B00EF16F0000E016E010E88EC11F04C50078F
:102DAB00E1030E4B5CD8B0DDEF16F0DFEF16F0E170
:102DBB00EF16F04B4A4C2A5504D8A4E7EF16F0E96E
:102DCB00EF16F0FAEF16F0000E016E010E88EC1103
:102DDB00F04B504C10D8B4F5EF16F0F7EF16F0FAA5
:102DEB00EF16F04B06D8A04C064B504C10D8A40154
:102DFB00EF17F003EF17F01DEF17F0800E086E2A98
:102E0B000EF3EC10F0600E036E046A820E056EFF7B
:102E1B00EC12F0C00E086E200EF3EC10F06E0E03E9
:102E2B006E046AC20E056EFFEC12F03FEF17F080D6
:102E3B000E086E200EF3EC10F04B500E0DF35052AB
:102E4B000F0A6E0AC003F0046A820E056EFFEC12C5
:102E5B00F0C00E086E2A0EF3EC10F04B500E0DF373
:102E6B0050600F0A6E0AC003F0046AC20E056EFFB3
:102E7B00EC12F00B0E5518D8A446EF17F048EF17CD
:102E8B00F07DEF17F0000E016E010E88EC11F05F74
:102E9B00EF17F0020E586E7DEF17F0050E586E7D92
:102EAB00EF17F0040E586E7DEF17F0030E586E7D82
:102EBB00EF17F04BC00AF04CC00BF00B50000AD8C8
:102ECB00B46AEF17F07DEF17F00A50000AD8B44F31
:102EDB00EF17F0010AD8B453EF17F0030AD8B45721
:102EEB00EF17F0010AD8B45BEF17F07DEF17F00C7A
:102EFB000E5518D8A484EF17F086EF17F08CEF1748
:102F0B00F0000E016E010E88EC11F0586A120049A8
:102F1B00504A10D8B494EF17F096EF17F09BEF17B9
:102F2B00F0466A0A0E456E9FEF17F04DC045F04E06
:102F3B00C046F049504A10D8B4A6EF17F0A8EF17C7
:102F4B00F0B8EF17F04DC001F04EC002F0046A0A62
:102F5B000E036ECDEC12F001500C0DF3CF0AF00BFB
:102F6B006ABBEF17F00B6A000E0A6E0AC056F00D23
:102F7B006A000E0C6E49EF18F00F6A000E0E6E0809
:102F8B000E0E180F10D8B4CDEF17F0CFEF17F0D9F6
:102F9B00EF17F00B0E0E180F10D8A4D7EF17F0D9B0
:102FAB00EF17F0F2EF17F00F0E0C02F3CF06F0F461
:102FBB00CF07F00D02F3500726000E0624086E0112
:102FCB000E0720096E0E500824D96E0F500920DA17
:102FDB006E200EDF6E37EF18F00E0E0E180F10D896
:102FEB00A4FAEF17F0FCEF17F014EF18F00F0E0C1C
:102FFB0002F3CF06F0F4CF07F00D02F350072600D3
:10300B000E0624086E010E0720096E0E500824D9F7
:10301B006E0F500920DA6EDF6A37EF18F00F0E0CC7
:10302B0002F3CF06F0F4CF07F00D02F350072600A2
:10303B000E0624086E010E0720096E0E500824D9C7
:10304B006E0F500920DA6E5650CDEC10F0DF6E5635
:10305B002A770E566434EF18F036EF18F037EF1866
:10306B00F0566A0E4A0F2A0FBE45EF18F00F5009A3
:10307B00E10F0E0E5CD8A045EF18F047EF18F0C526
:10308B00EF17F00C4A0D2A45500C5C46500D58D8E2
:10309B00A052EF18F054EF18F0C2EF17F01200091E
:1030AB006E0950D8B45CEF18F05EEF18F080EF1893
:1030BB00F004BE65EF18F063EF18F080EF18F00125
:1030CB00C005F002C006F003C007F004C008F0050D
:1030DB001E061E071E081E052A000E0622072208C2
:1030EB002205C00BF006C00CF007C00DF008C00E97
:1030FB00F088EF18F001C00BF002C00CF003C00D0C
:10310B00F004C00EF00150021003100410D8A4916B
:10311B00EF18F093EF18F09DEF18F0000E016E0012
:10312B000E026E000E036E000E046E2EEF19F0965B
:10313B000E0A6EA7EF18F00A2AD8900E320D320C39
:10314B00320B32000E0B14056E000E0C14066E00C3
:10315B000E0D14076EFE0E0E14086E0550061007AA
:10316B00100810D8A4BCEF18F0BEEF18F0A1EF18A0
:10317B00F0CCEF18F00A2A010E0B26000E0C220DD4
:10318B00220E22D8900E320D320C320B32000E0B67
:10319B0014056E000E0C14066E000E0D14076EFF58
:1031AB000E0E14086E0550061007100810D8A4E177
:1031BB00EF18F0E3EF18F0C0EF18F0EBEF18F00A90
:1031CB0006D8900B360C360D360E360DBEF0EF18BA
:1031DB00F0F2EF18F0FAEF18F0020E0A60F8EF18A1
:1031EB00F0FAEF18F0E5EF18F00AB0FFEF18F00166
:1031FB00EF19F002EF19F00D9ED8900A320AC005B4
:10320B00F0066A076A086A05C008F0076A066A05CD
:10321B006A05500B1206500C1207500D1208500E77
:10322B00120950D8B41CEF19F01EEF19F026EF1944
:10323B00F004BE25EF19F023EF19F026EF19F00E6D
:10324B008E0BC001F00CC002F00DC003F00EC004D9
:10325B00F01200020E46EC11F0366E010E46EC1128
:10326B00F0376E000E46EC11F0386E36AC40EF19AD
:10327B00F042EF19F051EF19F03E6A010E3D6E3638
:10328B00380F0B010B300F0001B36F36500F0B30A3
:10329B000FB46F5CEF19F03E6A000E3D6E36380FBF
:1032AB000B030B300F0001B36F4BEF19F03A0EB558
:1032BB006F37380F0B0F0B300FB66F37500F0B30BC
:1032CB000FB76F3A0EB86F38380F0B0F0B300FB9B3
:1032DB006F38500F0B300FBA6FBB6BB3510A0DF336
:1032EB00CF32F0F4CF33F0B4513226000E3322F04C
:1032FB000E3224436EFD0E3320446EB6510A0DF38D
:10330B00CF32F0F4CF33F0B7513226000E3322F028
:10331B000E32243F6EFD0E3320406EB9510A0DF371
:10332B00CF32F0F4CF33F0BA513226000E3322F005
:10333B000E3224416EFD0E3320426E040EA5EC11AD
:10334B00F001C04FF002C050F0140E136EAE0E140D
:10335B006E230E156E410E166E4FC001F050C0025B
:10336B00F0036A046A000E55EC18F001C00FF0026E
:10337B00C010F003C011F004C012F067EC1AF00F8C
:10338B00C028F010C029F011C02AF012C02BF02178
:10339B00EC15F028C04FF029C050F04FC001F05091
:1033AB00C002F0046A0A0E036E35EC13F0015030C4
:1033BB000F5A6E4FC001F050C002F0046A0A0E03A0
:1033CB006ECDEC12F00150300F5B6E5C6AED0E03AC
:1033DB006E3F0E046E820E056EFFEC12F0F80E03BC
:1033EB006E3F0E046E8A0E056EFFEC12F0F50E03A7
:1033FB006E3F0E046E8D0E056EFFEC12F0B30E03D6
:10340B006E046AC00E056EFFEC12F05150030DF303
:10341B0050980F326E32C003F0046ACA0E056EFF6D
:10342B00EC12F05A0E036E046ACD0E056EFFEC1211
:10343B00F05504D8A424EF1AF026EF1AF033EF1A44
:10344B00F0525007E1070E515CD8B02FEF1AF03154
:10345B00EF1AF033EF1AF0514A522A020E5518D8D0
:10346B00A43AEF1AF03CEF1AF048EF1AF051505211
:10347B0010D8B443EF1AF045EF1AF048EF1AF05199
:10348B0006D8A05206030E5518D8A44FEF1AF051C8
:10349B00EF1AF054EF1AF0526A080E516E44EC1406
:1034AB00F00B0E5518D8A45DEF1AF05FEF1AF0660B
:1034BB00EF1AF0000E016E010E88EC11F0010E58A0
:1034CB006E12001250800B1F6E12501224266E11BA
:1034DB00AE72EF1AF074EF1AF075EF1AF026802621
:1034EB0050D8B47BEF1AF07DEF1AF091EF1AF0265B
:1034FB0028D8A483EF1AF085EF1AF08DEF1AF0009D
:10350B000E0F6E000E106E000E116E000E126E116D
:10351B008E126A99EF1AF0000E0F6E000E106E00ED
:10352B000E116E000E126E1650800B1F1A165016CF
:10353B0024276E15AEA4EF1AF0A6EF1AF0A7EF1A18
:10354B00F027802750D8B4ADEF1AF0AFEF1AF0C3C5
:10355B00EF1AF02728D8A4B5EF1AF0B7EF1AF0BF7F
:10356B00EF1AF0000E136E000E146E000E156E00A7
:10357B000E166E158E166ACBEF1AF0000E136E0038
:10358B000E146E000E156E000E166E1350141015E1
:10359B00101610D8A4D4EF1AF0D6EF1AF0EEEF1ADB
:1035AB00F0000E0F6E000E106E000E116E000E125C
:1035BB006E800E11127F0E12121F5012120FC00FBF
:1035CB00F010C010F011C011F012C012F02DEF1C52
:1035DB00F02650D8A4F4EF1AF0F6EF1AF000EF1B18
:1035EB00F0000E0F6E000E106E000E116E000E121C
:1035FB006E2DEF1CF0275026C017F0186A175E00CF
:10360B000E185A7F0E1724206E000E1820216E0FF5
:10361B00C01BF010C01CF011C01DF012C01EF0003A
:10362B000E0F6E000E106E000E116E000E126E005D
:10363B000E226E000E236E000E246E000E256E27DA
:10364B006A60EF1BF02750D8B42EEF1BF030EF1B46
:10365B00F047EF1BF0D8901B361C361D361E36D8A4
:10366B00900F3610361136123625AE3FEF1BF04158
:10367B00EF1BF042EF1BF00F80D89022362336243D
:10368B0036253613501B5C14501C5815501D5816FC
:10369B00501E58D8A054EF1BF056EF1BF05FEF1BDA
:1036AB00F0258C13501B5E14501C5A15501D5A16C6
:1036BB00501E5A272A190E276466EF1BF068EF1B62
:1036CB00F028EF1BF01B501C101D101E10D8B471EE
:1036DB00EF1BF073EF1BF08BEF1BF022808BEF1BBC
:1036EB00F0D8900F3610361136123625AE80EF1B00
:1036FB00F082EF1BF083EF1BF00F80D89022362364
:10370B0036243625362006D8A0210611AE90EF1BA5
:10371B00F092EF1BF076EF1BF0276A25AE98EF1BAC
:10372B00F09AEF1BF0BEEF1BF0FF0E2214176EFF8B
:10373B000E2314186EFF0E2414196E7F0E25141A07
:10374B006E1750181019101A10D8B4AFEF1BF0B138
:10375B00EF1BF0B5EF1BF0010E276EBEEF1BF00F4A
:10376B00A0BAEF1BF0BCEF1BF0BEEF1BF0B1EF1BD1
:10377B00F02750D8B4C4EF1BF0C6EF1BF0EAEF1BD9
:10378B00F0010E0F26000E10221122122212A0D1D0
:10379B00EF1BF0D3EF1BF0EAEF1BF00FC017F0108D
:1037AB00C018F011C019F012C01AF01A341A3219DD
:1037BB00321832173217C00FF018C010F019C011A1
:1037CB00F01AC012F0204A212A21BEF5EF1BF0217E
:1037DB005008E12028D8A0F5EF1BF0F7EF1BF00203
:1037EB00EF1CF0000E216E2068000E0F6E000E1005
:1037FB006E000E116E000E126E21BE0FEF1CF0212B
:10380B005006E12004D8B00DEF1CF00FEF1CF01B9D
:10381B00EF1CF0216A000E206E000E0F6E000E10D2
:10382B006E000E116E000E126E1F6A20C026F0265F
:10383B00A022EF1CF024EF1CF027EF1CF0118E28B8
:10384B00EF1CF0119ED8902630126EE2EF1AF01298
:10385B00005450D8A434EF1CF036EF1CF0AFEF1C23
:10386B00F0020E46EC11F0366E010E46EC11F037FD
:10387B006E000E46EC11F0386E36AC47EF1CF0497B
:10388B00EF1CF065EF1CF03E6A010E3D6E36C00E6C
:10389B00F00F0E0E1636C00FF00F3A0F0E0F16016B
:1038AB000E0F160F500A0DF3CF10F0F4CF11F00ED0
:1038BB00501024436E000E1120446E7FEF1CF03E1F
:1038CB006A000E3D6E36C00EF00F0E0E1636C00F90
:1038DB00F00F3A0F0E0F16030E0F160F500A0DF3C3
:1038EB00CF10F0F4CF11F00E501024436E000E11D8
:1038FB0020446E37C00EF00F0E0E1637C00FF00FB0
:10390B003A0F0E0F160F0E0F160F500A0DF3CF10A6
:10391B00F0F4CF11F00E5010243F6E000E1120402A
:10392B006E38C00EF00F0E0E1638C00FF00F3A0F98
:10393B000E0F160F0E0F160F500A0DF3CF10F0F4DB
:10394B00CF11F00E501024416E000E1120426E016B
:10395B000E546E3BC00AF03CC00BF007EC1EF0029D
:10396B000E5518D8A4BCEF1CF0BEEF1CF0D4EF1C06
:10397B00F03C5009E1020E3B5CD8A0C7EF1CF0C92C
:10398B00EF1CF0CEEF1CF03C6A000E3B6ED4EF1C2C
:10399B00F0010E3B243B6E000E3C203C6E5504D8D0
:1039AB00A4DAEF1CF0DCEF1CF057EF1DF03B503CA2
:1039BB0010D8A4E3EF1CF0E5EF1CF016EF1DF03D63
:1039CB00503E10D8B4ECEF1CF0EEEF1CF006EF1DE0
:1039DB00F0445009E10C0E435CD8A0F7EF1CF0F952
:1039EB00EF1CF0FEEF1CF0446A010E436E57EF1D07
:1039FB00F0010E4324436E000E4420446E57EF1D1E
:103A0B00F0445009E1170E435CD8A00FEF1DF011E5
:103A1B00EF1DF0FEEF1CF0446A000E436E57EF1DD6
:103A2B00F03B043C10D8A41DEF1DF01FEF1DF03729
:103A3B00EF1DF0405009E13B0E3F5CD8A028EF1D75
:103A4B00F02AEF1DF02FEF1DF0406A000E3F6E576E
:103A5B00EF1DF0010E3F243F6E000E4020406E57CD
:103A6B00EF1DF0020E3B183C10D8A43FEF1DF041A8
:103A7B00EF1DF057EF1DF0425009E13B0E415CD8B2
:103A8B00A04AEF1DF04CEF1DF051EF1DF0426A0004
:103A9B000E416E57EF1DF0010E4124416E000E4298
:103AAB0020426E0B0E5518D8A45EEF1DF060EF1D73
:103ABB00F0EFEF1DF0000E016E010E88EC11F03DE2
:103ACB00503E10D8B46CEF1DF06EEF1DF08BEF1D58
:103ADB00F043C001F044C002F0046A0A0E036ECD3D
:103AEB00EC12F001C00EF002C00FF043C001F04425
:103AFB00C002F0046A0A0E036E35EC13F00138F0C5
:103B0B000B0E10126E128CA7EF1DF043C001F04488
:103B1B00C002F0046A0A0E036ECDEC12F001C00E67
:103B2B00F002C00FF043C001F044C002F0046A0A77
:103B3B000E036E35EC13F00138F00B0E10126E3FC6
:103B4B000E121612C008F0020E27EC11F03FC00146
:103B5B00F040C002F0046A0A0E036ECDEC12F001C5
:103B6B00C00EF002C00FF03FC001F040C002F004E5
:103B7B006A0A0E036E35EC13F00138F00B0E1008C9
:103B8B006E010E27EC11F041C001F042C002F004AF
:103B9B006A0A0E036ECDEC12F001C00EF002C00FDC
:103BAB00F041C001F042C002F0046A0A0E036E3508
:103BBB00EC13F00138F00B0E10086E000E27EC1111
:103BCB00F0546A3C6A000E3B6E3A6A000E396E0185
:103BDB000E586E0C0E5518D8A4F6EF1DF0F8EF1D0D
:103BEB00F006EF1EF0000E016E010E88EC11F05482
:103BFB006A3C6A000E3B6E3A6A000E396E010E5833
:103C0B006E1200ED0E036E3F0E046E800E056EFFFE
:103C1B00EC12F03B503C10D8A416EF1EF018EF1E20
:103C2B00F0ABEF1EF039500C6E3A500D6E394A3A2C
:103C3B002AF40E0C5C010E0D58D8B027EF1EF0299C
:103C4B00EF1EF049EF1EF0C00E086E43C001F044AA
:103C5B00C002F0046A0A0E036E35EC13F00150300B
:103C6B000FF3EC10F0C10E086E43C001F044C0021C
:103C7B00F0046A0A0E036ECDEC12F00150300FF314
:103C8B00EC10F063EF1EF0E80E395C030E3A58D8D7
:103C9B00B052EF1EF054EF1EF060EF1EF0C00E0896
:103CAB006E200EF3EC10F0C10E086E200EF3EC102C
:103CBB00F063EF1EF03A6A000E396EC20E086E3AD0
:103CCB000EF3EC10F0C30E086E3FC001F040C002C3
:103CDB00F0046A0A0E036E35EC13F00150300FF34B
:103CEB00EC10F0C40E086E3FC001F040C002F004AF
:103CFB006A0A0E036ECDEC12F00150300FF3EC108C
:103D0B00F0C50E086E3A0EF3EC10F0C60E086E41BD
:103D1B00C001F042C002F0046A0A0E036E35EC13C8
:103D2B00F00150300FF3EC10F0C70E086E41C001DC
:103D3B00F042C002F0046A0A0E036ECDEC12F001E1
:103D4B0050300FF3EC10F0E2EF1FF03B043C10D8B7
:103D5B00A4B2EF1EF0B4EF1EF047EF1FF039500C7A
:103D6B006E3A500D6E394A3A2AF40E0C5C010E0D68
:103D7B0058D8B0C3EF1EF0C5EF1EF0E5EF1EF0C331
:103D8B000E086E3FC001F040C002F0046A0A0E0339
:103D9B006E35EC13F00150300FF3EC10F0C40E083D
:103DAB006E3FC001F040C002F0046A0A0E036ECDF4
:103DBB00EC12F00150300FF3EC10F0FFEF1EF0E8B7
:103DCB000E395C030E3A58D8B0EEEF1EF0F0EF1E32
:103DDB00F0FCEF1EF0C30E086E200EF3EC10F0C4D7
:103DEB000E086E200EF3EC10F0FFEF1EF03A6A0097
:103DFB000E396EC20E086E3A0EF3EC10F0C00E08C0
:103E0B006E43C001F044C002F0046A0A0E036E3523
:103E1B00EC13F00150300FF3EC10F0C10E086E43B1
:103E2B00C001F044C002F0046A0A0E036ECDEC121E
:103E3B00F00150300FF3EC10F0C50E086E3A0EF394
:103E4B00EC10F0C60E086E41C001F042C002F00447
:103E5B006A0A0E036E35EC13F00150300FF3EC10C1
:103E6B00F0C70E086E41C001F042C002F0046A0AAE
:103E7B000E036ECDEC12F00150300FF3EC10F0E2AC
:103E8B00EF1FF0020E3B183C10D8A44FEF1FF05160
:103E9B00EF1FF0E2EF1FF039500C6E3A500D6E39F8
:103EAB004A3A2AF40E0C5C010E0D58D8B060EF1F85
:103EBB00F062EF1FF082EF1FF0C60E086E41C001DB
:103ECB00F042C002F0046A0A0E036E35EC13F001E7
:103EDB0050300FF3EC10F0C70E086E41C001F042EA
:103EEB00C002F0046A0A0E036ECDEC12F0015030E2
:103EFB000FF3EC10F09CEF1FF0E80E395C030E3A59
:103F0B0058D8B08BEF1FF08DEF1FF099EF1FF0C655
:103F1B000E086E200EF3EC10F0C70E086E200EF399
:103F2B00EC10F09CEF1FF03A6A000E396EC20E08CF
:103F3B006E3A0EF3EC10F0C00E086E43C001F04465
:103F4B00C002F0046A0A0E036E35EC13F001503018
:103F5B000FF3EC10F0C10E086E43C001F044C00229
:103F6B00F0046A0A0E036ECDEC12F00150300FF321
:103F7B00EC10F0C50E086E3A0EF3EC10F0C30E0801
:103F8B006E3FC001F040C002F0046A0A0E036E35AA
:103F9B00EC13F00150300FF3EC10F0C40E086E3F31
:103FAB00C001F040C002F0046A0A0E036ECDEC12A1
:103FBB00F00150300FF3EC10F0120000646F776ECD
:103FCB006C6F6164696E67206461746100436C653A
:103FDB00617265642064617461004E4F204C4F47E1
:103FEB00530054494D45000D0A00535000455600EF
:063FFB00009DEF12F00131
:020000040020DA
:08000000FFFFFFFFFFFFFFFF00
:020000040030CA
:0E000000FF071F1FFF8285FF0FC00FE00F409C
:00000001FF
